:03000000020927CB
:0C092700787FE4F6D8FD75810A02080014
:1008D400454D505459006C6F770048414C460046D2
:1008E400554C4C20212121004D4F544F52204F464E
:0208F4004600BC
:10080000E4F590C291C292C290C2B612087E2090C6
:100810001420921120910E7F851209337BFF7A08F4
:1008200079D41208AA30901420921120910E7F855D
:100830001209337BFF7A0879DA1208AA3090142063
:10084000921130910E7F851209337BFF7A0879DE91
:100850001208AA3090B53092B23091AFD2B67F85EF
:100860001209337BFF7A0879E31208AA7FC31209C1
:0E087000337BFF7A0879EC1208AAC2B6808D9D
:06090F00D2B27FF47E016C
:10091500E4FDFCC3ED9FEC9E50070DBD00010C806E
:01092500F2DF
:0109260022AE
:10087E007F381209331209117F011209331209113F
:10088E007F0C1209331209117F80120933120911DC
:0C089E007F0E1209337FF47E0102091561
:0C0933008FA0C2B1C2B012090FC2B222E4
:1008AA008B088A09890AAB08AA09A90A1208F6FF5D
:1008BA00601712093F7F107E271209157401250A55
:0A08CA00F50AE43509F50980DD2286
:0C093F008FA0D2B0C2B112090FC2B222C8
:1008F600BB010689828A83E0225002E722BBFE0200
:09090600E32289828A83E4932232
:00000001FF
